{
    "01000000019a83b4f3830dcea13de42391e2d5c54a0dc601e6e3bb3dec8864c3d016d6da6a000000006a47304402205c39c4693812eb57b24cf689f19248a6651a99c91e3f1825201b533cc52d950e02202a9499233399d28d77b35df5b865d42e4113ea3a681108048593fb9e48782e6a0121031e4d9fb58a451822fdf9b4fea0e22c33a685097a65a8e8760730dcb6929680e7ffffffff0240420f00000000001976a91452cfece0004d525df6c3d85295601a5b196ebaa988ac80f77300000000001976a9144d515dfc23e9a97de075309be0011ef7e44230d388ac00000000"
},
{
    "txid": "b48a012b052629a637dd8082c22622d5e064a9f938ba1ced71c88d8aaa380fed",
    "version": 1,
    "locktime": 0,
    "time": 0,
    "vin": [
    {
        "txid": "6adad616d0c36488ec3dbbe3e601c60d4ac5d5e29123e43da1ce0d83f3b4839a",
        "vout": 0,
        "scriptSig":
        {
            "asm": "304402205c39c4693812eb57b24cf689f19248a6651a99c91e3f1825201b533cc52d950e02202a9499233399d28d77b35df5b865d42e4113ea3a681108048593fb9e48782e6a01 031e4d9fb58a451822fdf9b4fea0e22c33a685097a65a8e8760730dcb6929680e7",
            "hex": "47304402205c39c4693812eb57b24cf689f19248a6651a99c91e3f1825201b533cc52d950e02202a9499233399d28d77b35df5b865d42e4113ea3a681108048593fb9e48782e6a0121031e4d9fb58a451822fdf9b4fea0e22c33a685097a65a8e8760730dcb6929680e7"
        },
        "sequence": 4294967295
    }],
    "vout": [
    {
        "value": 0.01000000,
        "n": 0,
        "scriptPubKey":
        {
            "asm": "OP_DUP OP_HASH160 52cfece0004d525df6c3d85295601a5b196ebaa9 OP_EQUALVERIFY OP_CHECKSIG",
            "hex": "76a91452cfece0004d525df6c3d85295601a5b196ebaa988ac",
            "reqSigs": 1,
            "type": "pubkeyhash",
            "addresses": [
                "PG93ec6KmpYKcssFPMW7jKV9uPcAw35SEE"
            ]
        }
    },
    {
        "value": 0.07600000,
        "n": 1,
        "scriptPubKey":
        {
            "asm": "OP_DUP OP_HASH160 4d515dfc23e9a97de075309be0011ef7e44230d3 OP_EQUALVERIFY OP_CHECKSIG",
            "hex": "76a9144d515dfc23e9a97de075309be0011ef7e44230d388ac",
            "reqSigs": 1,
            "type": "pubkeyhash",
            "addresses": [
                "PFdzfENGEYdfXn6S8AZvRSijKpHixautkq"
            ]
        }
    }]
}