{
    "01000000019a83b4f3830dcea13de42391e2d5c54a0dc601e6e3bb3dec8864c3d016d6da6a000000006b483045022100dbe5ba16c677083531f0258a91fbd83c04d23e6a53cd7d99ad8609e3b25a5298022057fe1f2bb9f3b9e1e36722caf6810cff2d448ecf35b8b9278f9d94c4ee1055d50121031e4d9fb58a451822fdf9b4fea0e22c33a685097a65a8e8760730dcb6929680e7ffffffff0240420f00000000001976a91452cfece0004d525df6c3d85295601a5b196ebaa988ac10577500000000001976a9144d515dfc23e9a97de075309be0011ef7e44230d388ac00000000"
},
{
    "txid": "951a24cc5fe72a0865e46d3276b674e55d33dbf41c6b5fbbfbef8384b0d9a918",
    "version": 1,
    "locktime": 0,
    "time": 0,
    "vin": [
    {
        "txid": "6adad616d0c36488ec3dbbe3e601c60d4ac5d5e29123e43da1ce0d83f3b4839a",
        "vout": 0,
        "scriptSig":
        {
            "asm": "3045022100dbe5ba16c677083531f0258a91fbd83c04d23e6a53cd7d99ad8609e3b25a5298022057fe1f2bb9f3b9e1e36722caf6810cff2d448ecf35b8b9278f9d94c4ee1055d501 031e4d9fb58a451822fdf9b4fea0e22c33a685097a65a8e8760730dcb6929680e7",
            "hex": "483045022100dbe5ba16c677083531f0258a91fbd83c04d23e6a53cd7d99ad8609e3b25a5298022057fe1f2bb9f3b9e1e36722caf6810cff2d448ecf35b8b9278f9d94c4ee1055d50121031e4d9fb58a451822fdf9b4fea0e22c33a685097a65a8e8760730dcb6929680e7"
        },
        "sequence": 4294967295
    }],
    "vout": [
    {
        "value": 0.01000000,
        "n": 0,
        "scriptPubKey":
        {
            "asm": "OP_DUP OP_HASH160 52cfece0004d525df6c3d85295601a5b196ebaa9 OP_EQUALVERIFY OP_CHECKSIG",
            "hex": "76a91452cfece0004d525df6c3d85295601a5b196ebaa988ac",
            "reqSigs": 1,
            "type": "pubkeyhash",
            "addresses": [
                "PG93ec6KmpYKcssFPMW7jKV9uPcAw35SEE"
            ]
        }
    },
    {
        "value": 0.07690000,
        "n": 1,
        "scriptPubKey":
        {
            "asm": "OP_DUP OP_HASH160 4d515dfc23e9a97de075309be0011ef7e44230d3 OP_EQUALVERIFY OP_CHECKSIG",
            "hex": "76a9144d515dfc23e9a97de075309be0011ef7e44230d388ac",
            "reqSigs": 1,
            "type": "pubkeyhash",
            "addresses": [
                "PFdzfENGEYdfXn6S8AZvRSijKpHixautkq"
            ]
        }
    }]
}